{"abi":[{"type":"constructor","inputs":[{"name":"_productRegistry","type":"address","internalType":"address"}],"stateMutability":"nonpayable"},{"type":"receive","stateMutability":"payable"},{"type":"function","name":"acceptOwnership","inputs":[],"outputs":[],"stateMutability":"nonpayable"},{"type":"function","name":"cancelEscrow","inputs":[{"name":"_escrowId","type":"uint256","internalType":"uint256"}],"outputs":[],"stateMutability":"nonpayable"},{"type":"function","name":"createEscrow","inputs":[{"name":"_productId","type":"uint256","internalType":"uint256"},{"name":"_payee","type":"address","internalType":"address"}],"outputs":[{"name":"escrowId","type":"uint256","internalType":"uint256"}],"stateMutability":"payable"},{"type":"function","name":"getAccumulatedFees","inputs":[],"outputs":[{"name":"","type":"uint256","internalType":"uint256"}],"stateMutability":"view"},{"type":"function","name":"getDisputePeriod","inputs":[],"outputs":[{"name":"","type":"uint256","internalType":"uint256"}],"stateMutability":"view"},{"type":"function","name":"getEscrow","inputs":[{"name":"_escrowId","type":"uint256","internalType":"uint256"}],"outputs":[{"name":"","type":"tuple","internalType":"struct PaymentEscrow.Escrow","components":[{"name":"escrowId","type":"uint256","internalType":"uint256"},{"name":"productId","type":"uint256","internalType":"uint256"},{"name":"payer","type":"address","internalType":"address"},{"name":"payee","type":"address","internalType":"address"},{"name":"amount","type":"uint256","internalType":"uint256"},{"name":"state","type":"uint8","internalType":"enum PaymentEscrow.EscrowState"},{"name":"createdAt","type":"uint256","internalType":"uint256"},{"name":"completedAt","type":"uint256","internalType":"uint256"},{"name":"disputeReason","type":"string","internalType":"string"},{"name":"exists","type":"bool","internalType":"bool"}]}],"stateMutability":"view"},{"type":"function","name":"getEscrowByProduct","inputs":[{"name":"_productId","type":"uint256","internalType":"uint256"}],"outputs":[{"name":"","type":"uint256","internalType":"uint256"}],"stateMutability":"view"},{"type":"function","name":"getEscrowCount","inputs":[],"outputs":[{"name":"","type":"uint256","internalType":"uint256"}],"stateMutability":"view"},{"type":"function","name":"getFeeRecipient","inputs":[],"outputs":[{"name":"","type":"address","internalType":"address"}],"stateMutability":"view"},{"type":"function","name":"getOwner","inputs":[],"outputs":[{"name":"","type":"address","internalType":"address"}],"stateMutability":"view"},{"type":"function","name":"getPendingOwner","inputs":[],"outputs":[{"name":"","type":"address","internalType":"address"}],"stateMutability":"view"},{"type":"function","name":"getPlatformFee","inputs":[],"outputs":[{"name":"","type":"uint256","internalType":"uint256"}],"stateMutability":"view"},{"type":"function","name":"getProductRegistry","inputs":[],"outputs":[{"name":"","type":"address","internalType":"address"}],"stateMutability":"view"},{"type":"function","name":"isDisputePeriodActive","inputs":[{"name":"_escrowId","type":"uint256","internalType":"uint256"}],"outputs":[{"name":"","type":"bool","internalType":"bool"}],"stateMutability":"view"},{"type":"function","name":"isPaused","inputs":[],"outputs":[{"name":"","type":"bool","internalType":"bool"}],"stateMutability":"view"},{"type":"function","name":"raiseDispute","inputs":[{"name":"_escrowId","type":"uint256","internalType":"uint256"},{"name":"_reason","type":"string","internalType":"string"}],"outputs":[],"stateMutability":"nonpayable"},{"type":"function","name":"releaseEscrow","inputs":[{"name":"_escrowId","type":"uint256","internalType":"uint256"}],"outputs":[],"stateMutability":"nonpayable"},{"type":"function","name":"resolveDispute","inputs":[{"name":"_escrowId","type":"uint256","internalType":"uint256"},{"name":"_refundToPayer","type":"bool","internalType":"bool"}],"outputs":[],"stateMutability":"nonpayable"},{"type":"function","name":"setDisputePeriod","inputs":[{"name":"_newPeriod","type":"uint256","internalType":"uint256"}],"outputs":[],"stateMutability":"nonpayable"},{"type":"function","name":"setFeeRecipient","inputs":[{"name":"_newRecipient","type":"address","internalType":"address"}],"outputs":[],"stateMutability":"nonpayable"},{"type":"function","name":"setPaused","inputs":[{"name":"_paused","type":"bool","internalType":"bool"}],"outputs":[],"stateMutability":"nonpayable"},{"type":"function","name":"setPlatformFee","inputs":[{"name":"_newFee","type":"uint256","internalType":"uint256"}],"outputs":[],"stateMutability":"nonpayable"},{"type":"function","name":"transferContractOwnership","inputs":[{"name":"_newOwner","type":"address","internalType":"address"}],"outputs":[],"stateMutability":"nonpayable"},{"type":"function","name":"withdrawFees","inputs":[],"outputs":[],"stateMutability":"nonpayable"},{"type":"event","name":"ContractPausedStatusChanged","inputs":[{"name":"isPaused","type":"bool","indexed":false,"internalType":"bool"}],"anonymous":false},{"type":"event","name":"DisputePeriodUpdated","inputs":[{"name":"oldPeriod","type":"uint256","indexed":false,"internalType":"uint256"},{"name":"newPeriod","type":"uint256","indexed":false,"internalType":"uint256"}],"anonymous":false},{"type":"event","name":"DisputeRaised","inputs":[{"name":"escrowId","type":"uint256","indexed":true,"internalType":"uint256"},{"name":"raiser","type":"address","indexed":true,"internalType":"address"},{"name":"reason","type":"string","indexed":false,"internalType":"string"}],"anonymous":false},{"type":"event","name":"DisputeResolved","inputs":[{"name":"escrowId","type":"uint256","indexed":true,"internalType":"uint256"},{"name":"winner","type":"address","indexed":true,"internalType":"address"},{"name":"refunded","type":"bool","indexed":false,"internalType":"bool"}],"anonymous":false},{"type":"event","name":"EscrowCancelled","inputs":[{"name":"escrowId","type":"uint256","indexed":true,"internalType":"uint256"}],"anonymous":false},{"type":"event","name":"EscrowCreated","inputs":[{"name":"escrowId","type":"uint256","indexed":true,"internalType":"uint256"},{"name":"productId","type":"uint256","indexed":true,"internalType":"uint256"},{"name":"payer","type":"address","indexed":true,"internalType":"address"},{"name":"payee","type":"address","indexed":false,"internalType":"address"},{"name":"amount","type":"uint256","indexed":false,"internalType":"uint256"}],"anonymous":false},{"type":"event","name":"EscrowRefunded","inputs":[{"name":"escrowId","type":"uint256","indexed":true,"internalType":"uint256"},{"name":"payer","type":"address","indexed":true,"internalType":"address"},{"name":"amount","type":"uint256","indexed":false,"internalType":"uint256"}],"anonymous":false},{"type":"event","name":"EscrowReleased","inputs":[{"name":"escrowId","type":"uint256","indexed":true,"internalType":"uint256"},{"name":"payee","type":"address","indexed":true,"internalType":"address"},{"name":"amount","type":"uint256","indexed":false,"internalType":"uint256"},{"name":"platformFee","type":"uint256","indexed":false,"internalType":"uint256"}],"anonymous":false},{"type":"event","name":"FeesWithdrawn","inputs":[{"name":"recipient","type":"address","indexed":true,"internalType":"address"},{"name":"amount","type":"uint256","indexed":false,"internalType":"uint256"}],"anonymous":false},{"type":"event","name":"OwnerTransferred","inputs":[{"name":"previousOwner","type":"address","indexed":true,"internalType":"address"},{"name":"newOwner","type":"address","indexed":true,"internalType":"address"}],"anonymous":false},{"type":"event","name":"OwnershipTransferInitiated","inputs":[{"name":"pendingOwner","type":"address","indexed":true,"internalType":"address"}],"anonymous":false},{"type":"event","name":"PlatformFeeUpdated","inputs":[{"name":"oldFee","type":"uint256","indexed":false,"internalType":"uint256"},{"name":"newFee","type":"uint256","indexed":false,"internalType":"uint256"}],"anonymous":false},{"type":"error","name":"PaymentEscrow__DeliveryNotConfirmed","inputs":[]},{"type":"error","name":"PaymentEscrow__DisputePeriodExpired","inputs":[]},{"type":"error","name":"PaymentEscrow__DisputePeriodNotExpired","inputs":[]},{"type":"error","name":"PaymentEscrow__EscrowAlreadyExists","inputs":[]},{"type":"error","name":"PaymentEscrow__EscrowDoesNotExist","inputs":[]},{"type":"error","name":"PaymentEscrow__InvalidAddress","inputs":[]},{"type":"error","name":"PaymentEscrow__InvalidAmount","inputs":[]},{"type":"error","name":"PaymentEscrow__InvalidEscrowState","inputs":[]},{"type":"error","name":"PaymentEscrow__ProductDoesNotExist","inputs":[]},{"type":"error","name":"PaymentEscrow__TransferFailed","inputs":[]},{"type":"error","name":"PaymentEscrow__Unauthorized","inputs":[]}],"bytecode":{"object":"0x60a060405262093a8060055560fa60065534801561001b575f5ffd5b506040516139c03803806139c0833981810160405281019061003d91906101dd565b805f73ffffffffffffffffffffffffffffffffffffffff168173ffffffffffffffffffffffffffffffffffffffff16036100a3576040517f6edc7e2f00000000000000000000000000000000000000000000000000000000815260040160405180910390fd5b8173ffffffffffffffffffffffffffffffffffffffff1660808173ffffffffffffffffffffffffffffffffffffffff16815250503360035f6101000a81548173ffffffffffffffffffffffffffffffffffffffff021916908373ffffffffffffffffffffffffffffffffffffffff1602179055503360075f6101000a81548173ffffffffffffffffffffffffffffffffffffffff021916908373ffffffffffffffffffffffffffffffffffffffff1602179055505f6002819055505f600760146101000a81548160ff0219169083151502179055505050610208565b5f5ffd5b5f73ffffffffffffffffffffffffffffffffffffffff82169050919050565b5f6101ac82610183565b9050919050565b6101bc816101a2565b81146101c6575f5ffd5b50565b5f815190506101d7816101b3565b92915050565b5f602082840312156101f2576101f161017f565b5b5f6101ff848285016101c9565b91505092915050565b60805161378b6102355f395f818161176e01528181611b580152818161207f0152612658015261378b5ff3fe60806040526004361061014e575f3560e01c806379ba5097116100b5578063a843c51f1161006e578063a843c51f14610451578063b187bd2614610479578063dbcd72f0146104a3578063e0182436146104d3578063e74b981b146104fb578063ed6531641461052357610155565b806379ba5097146103595780637d19e5961461036f578063893d20e8146103ab57806393596c7b146103d5578063a7153c9a146103ff578063a83ba53e1461042957610155565b80634ccb20c0116101075780634ccb20c01461024d5780635aea0ec4146102775780635aef573c146102a15780635df45a37146102c95780636ea8bc10146102f35780636fffff301461031d57610155565b806312e8e2c31461015957806316b151351461018157806316c38b3c146101ab57806334b25ee2146101d35780633afc6eaf146101fb578063476343ee1461023757610155565b3661015557005b5f5ffd5b348015610164575f5ffd5b5061017f600480360381019061017a9190612a1e565b61054b565b005b34801561018c575f5ffd5b50610195610657565b6040516101a29190612a58565b60405180910390f35b3480156101b6575f5ffd5b506101d160048036038101906101cc9190612aa6565b610660565b005b3480156101de575f5ffd5b506101f960048036038101906101f49190612ad1565b61073a565b005b348015610206575f5ffd5b50610221600480360381019061021c9190612a1e565b610b7e565b60405161022e9190612b1e565b60405180910390f35b348015610242575f5ffd5b5061024b610dd2565b005b348015610258575f5ffd5b50610261610fd1565b60405161026e9190612b76565b60405180910390f35b348015610282575f5ffd5b5061028b610ff9565b6040516102989190612a58565b60405180910390f35b3480156102ac575f5ffd5b506102c760048036038101906102c29190612ccb565b611002565b005b3480156102d4575f5ffd5b506102dd6112e3565b6040516102ea9190612a58565b60405180910390f35b3480156102fe575f5ffd5b506103076112ec565b6040516103149190612a58565b60405180910390f35b348015610328575f5ffd5b50610343600480360381019061033e9190612a1e565b6112f5565b6040516103509190612a58565b60405180910390f35b348015610364575f5ffd5b5061036d61130f565b005b34801561037a575f5ffd5b5061039560048036038101906103909190612a1e565b6114d9565b6040516103a29190612efc565b60405180910390f35b3480156103b6575f5ffd5b506103bf61171b565b6040516103cc9190612b76565b60405180910390f35b3480156103e0575f5ffd5b506103e9611743565b6040516103f69190612b76565b60405180910390f35b34801561040a575f5ffd5b5061041361176b565b6040516104209190612b76565b60405180910390f35b348015610434575f5ffd5b5061044f600480360381019061044a9190612a1e565b611792565b005b34801561045c575f5ffd5b5061047760048036038101906104729190612f46565b61189b565b005b348015610484575f5ffd5b5061048d611a0e565b60405161049a9190612b1e565b60405180910390f35b6104bd60048036038101906104b89190612f71565b611a24565b6040516104ca9190612a58565b60405180910390f35b3480156104de575f5ffd5b506104f960048036038101906104f49190612a1e565b611e7b565b005b348015610506575f5ffd5b50610521600480360381019061051c9190612f46565b612324565b005b34801561052e575f5ffd5b5061054960048036038101906105449190612a1e565b612454565b005b60035f9054906101000a900473ffffffffffffffffffffffffffffffffffffffff1673ffffffffffffffffffffffffffffffffffffffff163373ffffffffffffffffffffffffffffffffffffffff16146105d1576040517f35242d4900000000000000000000000000000000000000000000000000000000815260040160405180910390fd5b6103e881111561060d576040517f56bacbe800000000000000000000000000000000000000000000000000000000815260040160405180910390fd5b5f6006549050816006819055507fd347e206f25a89b917fc9482f1a2d294d749baa4dc9bde7fb495ee11fe491643818360405161064b929190612faf565b60405180910390a15050565b5f600254905090565b60035f9054906101000a900473ffffffffffffffffffffffffffffffffffffffff1673ffffffffffffffffffffffffffffffffffffffff163373ffffffffffffffffffffffffffffffffffffffff16146106e6576040517f35242d4900000000000000000000000000000000000000000000000000000000815260040160405180910390fd5b80600760146101000a81548160ff0219169083151502179055507f72bdf554ecca747be46b686bdaec16840fb0d2c780270d58d300f75a856d24238160405161072f9190612b1e565b60405180910390a150565b60035f9054906101000a900473ffffffffffffffffffffffffffffffffffffffff1673ffffffffffffffffffffffffffffffffffffffff163373ffffffffffffffffffffffffffffffffffffffff16146107c0576040517f35242d4900000000000000000000000000000000000000000000000000000000815260040160405180910390fd5b815f5f8281526020019081526020015f206009015f9054906101000a900460ff16610817576040517f5a72877700000000000000000000000000000000000000000000000000000000815260040160405180910390fd5b5f5f5f8581526020019081526020015f2090506003600481111561083e5761083d612d43565b5b816005015f9054906101000a900460ff16600481111561086157610860612d43565b5b14610898576040517fb49a998600000000000000000000000000000000000000000000000000000000815260040160405180910390fd5b5f5f8260040154905084156109c1576002836005015f6101000a81548160ff021916908360048111156108ce576108cd612d43565b5b0217905550826002015f9054906101000a900473ffffffffffffffffffffffffffffffffffffffff1691505f836002015f9054906101000a900473ffffffffffffffffffffffffffffffffffffffff1673ffffffffffffffffffffffffffffffffffffffff168260405161094190613003565b5f6040518083038185875af1925050503d805f811461097b576040519150601f19603f3d011682016040523d82523d5f602084013e610980565b606091505b50509050806109bb576040517fc091f29c00000000000000000000000000000000000000000000000000000000815260040160405180910390fd5b50610b1e565b6001836005015f6101000a81548160ff021916908360048111156109e8576109e7612d43565b5b0217905550826003015f9054906101000a900473ffffffffffffffffffffffffffffffffffffffff1691505f61271060065483610a259190613044565b610a2f91906130b2565b90505f8183610a3e91906130e2565b90508160085f828254610a519190613115565b925050819055505f856003015f9054906101000a900473ffffffffffffffffffffffffffffffffffffffff1673ffffffffffffffffffffffffffffffffffffffff1682604051610aa090613003565b5f6040518083038185875af1925050503d805f8114610ada576040519150601f19603f3d011682016040523d82523d5f602084013e610adf565b606091505b5050905080610b1a576040517fc091f29c00000000000000000000000000000000000000000000000000000000815260040160405180910390fd5b5050505b4283600701819055508173ffffffffffffffffffffffffffffffffffffffff16867f8fdd4548a8481406b6e29c0d6f25e27cd72502f79f4adf409468502e7920dabc87604051610b6e9190612b1e565b60405180910390a3505050505050565b5f815f5f8281526020019081526020015f206009015f9054906101000a900460ff16610bd6576040517f5a72877700000000000000000000000000000000000000000000000000000000815260040160405180910390fd5b5f5f5f8581526020019081526020015f20604051806101400160405290815f820154815260200160018201548152602001600282015f9054906101000a900473ffffffffffffffffffffffffffffffffffffffff1673ffffffffffffffffffffffffffffffffffffffff1673ffffffffffffffffffffffffffffffffffffffff168152602001600382015f9054906101000a900473ffffffffffffffffffffffffffffffffffffffff1673ffffffffffffffffffffffffffffffffffffffff1673ffffffffffffffffffffffffffffffffffffffff16815260200160048201548152602001600582015f9054906101000a900460ff166004811115610cde57610cdd612d43565b5b6004811115610cf057610cef612d43565b5b81526020016006820154815260200160078201548152602001600882018054610d1890613175565b80601f0160208091040260200160405190810160405280929190818152602001828054610d4490613175565b8015610d8f5780601f10610d6657610100808354040283529160200191610d8f565b820191905f5260205f20905b815481529060010190602001808311610d7257829003601f168201915b50505050508152602001600982015f9054906101000a900460ff16151515158152505090506005548160c00151610dc69190613115565b42111592505050919050565b60035f9054906101000a900473ffffffffffffffffffffffffffffffffffffffff1673ffffffffffffffffffffffffffffffffffffffff163373ffffffffffffffffffffffffffffffffffffffff1614610e58576040517f35242d4900000000000000000000000000000000000000000000000000000000815260040160405180910390fd5b5f60085490505f8103610e97576040517f56bacbe800000000000000000000000000000000000000000000000000000000815260040160405180910390fd5b5f6008819055505f60075f9054906101000a900473ffffffffffffffffffffffffffffffffffffffff1673ffffffffffffffffffffffffffffffffffffffff1682604051610ee490613003565b5f6040518083038185875af1925050503d805f8114610f1e576040519150601f19603f3d011682016040523d82523d5f602084013e610f23565b606091505b5050905080610f5e576040517fc091f29c00000000000000000000000000000000000000000000000000000000815260040160405180910390fd5b60075f9054906101000a900473ffffffffffffffffffffffffffffffffffffffff1673ffffffffffffffffffffffffffffffffffffffff167fc0819c13be868895eb93e40eaceb96de976442fa1d404e5c55f14bb65a8c489a83604051610fc59190612a58565b60405180910390a25050565b5f60075f9054906101000a900473ffffffffffffffffffffffffffffffffffffffff16905090565b5f600554905090565b600760149054906101000a900460ff1615611049576040517f35242d4900000000000000000000000000000000000000000000000000000000815260040160405180910390fd5b815f5f8281526020019081526020015f206009015f9054906101000a900460ff166110a0576040517f5a72877700000000000000000000000000000000000000000000000000000000815260040160405180910390fd5b5f5f5f8581526020019081526020015f2090505f60048111156110c6576110c5612d43565b5b816005015f9054906101000a900460ff1660048111156110e9576110e8612d43565b5b14611120576040517fb49a998600000000000000000000000000000000000000000000000000000000815260040160405180910390fd5b806002015f9054906101000a900473ffffffffffffffffffffffffffffffffffffffff1673ffffffffffffffffffffffffffffffffffffffff163373ffffffffffffffffffffffffffffffffffffffff16141580156111ce5750806003015f9054906101000a900473ffffffffffffffffffffffffffffffffffffffff1673ffffffffffffffffffffffffffffffffffffffff163373ffffffffffffffffffffffffffffffffffffffff1614155b15611205576040517f35242d4900000000000000000000000000000000000000000000000000000000815260040160405180910390fd5b60055481600601546112179190613115565b421115611250576040517f65eed89200000000000000000000000000000000000000000000000000000000815260040160405180910390fd5b6003816005015f6101000a81548160ff0219169083600481111561127757611276612d43565b5b02179055508281600801908161128d9190613345565b503373ffffffffffffffffffffffffffffffffffffffff16847f1b84372106d77c6daea0dda35bbc0229d10a83f58ec899092884925193682341856040516112d5919061345c565b60405180910390a350505050565b5f600854905090565b5f600654905090565b5f60015f8381526020019081526020015f20549050919050565b60045f9054906101000a900473ffffffffffffffffffffffffffffffffffffffff1673ffffffffffffffffffffffffffffffffffffffff163373ffffffffffffffffffffffffffffffffffffffff1614611395576040517f35242d4900000000000000000000000000000000000000000000000000000000815260040160405180910390fd5b5f60035f9054906101000a900473ffffffffffffffffffffffffffffffffffffffff16905060045f9054906101000a900473ffffffffffffffffffffffffffffffffffffffff1660035f6101000a81548173ffffffffffffffffffffffffffffffffffffffff021916908373ffffffffffffffffffffffffffffffffffffffff1602179055505f60045f6101000a81548173ffffffffffffffffffffffffffffffffffffffff021916908373ffffffffffffffffffffffffffffffffffffffff16021790555060035f9054906101000a900473ffffffffffffffffffffffffffffffffffffffff1673ffffffffffffffffffffffffffffffffffffffff168173ffffffffffffffffffffffffffffffffffffffff167f8934ce4adea8d9ce0d714d2c22b86790e41b7731c84b926fbbdc1d40ff6533c960405160405180910390a350565b6114e1612950565b815f5f8281526020019081526020015f206009015f9054906101000a900460ff16611538576040517f5a72877700000000000000000000000000000000000000000000000000000000815260040160405180910390fd5b5f5f8481526020019081526020015f20604051806101400160405290815f820154815260200160018201548152602001600282015f9054906101000a900473ffffffffffffffffffffffffffffffffffffffff1673ffffffffffffffffffffffffffffffffffffffff1673ffffffffffffffffffffffffffffffffffffffff168152602001600382015f9054906101000a900473ffffffffffffffffffffffffffffffffffffffff1673ffffffffffffffffffffffffffffffffffffffff1673ffffffffffffffffffffffffffffffffffffffff16815260200160048201548152602001600582015f9054906101000a900460ff16600481111561163f5761163e612d43565b5b600481111561165157611650612d43565b5b8152602001600682015481526020016007820154815260200160088201805461167990613175565b80601f01602080910402602001604051908101604052809291908181526020018280546116a590613175565b80156116f05780601f106116c7576101008083540402835291602001916116f0565b820191905f5260205f20905b8154815290600101906020018083116116d357829003601f168201915b50505050508152602001600982015f9054906101000a900460ff161515151581525050915050919050565b5f60035f9054906101000a900473ffffffffffffffffffffffffffffffffffffffff16905090565b5f60045f9054906101000a900473ffffffffffffffffffffffffffffffffffffffff16905090565b5f7f0000000000000000000000000000000000000000000000000000000000000000905090565b60035f9054906101000a900473ffffffffffffffffffffffffffffffffffffffff1673ffffffffffffffffffffffffffffffffffffffff163373ffffffffffffffffffffffffffffffffffffffff1614611818576040517f35242d4900000000000000000000000000000000000000000000000000000000815260040160405180910390fd5b5f8103611851576040517f56bacbe800000000000000000000000000000000000000000000000000000000815260040160405180910390fd5b5f6005549050816005819055507f1b06fb9d91e436b9fbdda0e56e986217154c73e273f3fefa17e7a6b147f3fcc3818360405161188f929190612faf565b60405180910390a15050565b60035f9054906101000a900473ffffffffffffffffffffffffffffffffffffffff1673ffffffffffffffffffffffffffffffffffffffff163373ffffffffffffffffffffffffffffffffffffffff1614611921576040517f35242d4900000000000000000000000000000000000000000000000000000000815260040160405180910390fd5b805f73ffffffffffffffffffffffffffffffffffffffff168173ffffffffffffffffffffffffffffffffffffffff1603611987576040517f6edc7e2f00000000000000000000000000000000000000000000000000000000815260040160405180910390fd5b8160045f6101000a81548173ffffffffffffffffffffffffffffffffffffffff021916908373ffffffffffffffffffffffffffffffffffffffff1602179055508173ffffffffffffffffffffffffffffffffffffffff167f20f5afdf40bf7b43c89031a5d4369a30b159e512d164aa46124bcb706b4a1caf60405160405180910390a25050565b5f600760149054906101000a900460ff16905090565b5f600760149054906101000a900460ff1615611a6c576040517f35242d4900000000000000000000000000000000000000000000000000000000815260040160405180910390fd5b815f73ffffffffffffffffffffffffffffffffffffffff168173ffffffffffffffffffffffffffffffffffffffff1603611ad2576040517f6edc7e2f00000000000000000000000000000000000000000000000000000000815260040160405180910390fd5b5f3403611b0b576040517f56bacbe800000000000000000000000000000000000000000000000000000000815260040160405180910390fd5b5f60015f8681526020019081526020015f205414611b55576040517f71196aa900000000000000000000000000000000000000000000000000000000815260040160405180910390fd5b5f7f000000000000000000000000000000000000000000000000000000000000000073ffffffffffffffffffffffffffffffffffffffff1663524e8462866040518263ffffffff1660e01b8152600401611baf9190612a58565b606060405180830381865afa158015611bca573d5f5f3e3d5ffd5b505050506040513d601f19601f82011682018060405250810190611bee91906134c7565b5050905080611c29576040517fc1ed6ea000000000000000000000000000000000000000000000000000000000815260040160405180910390fd5b60025f815480929190611c3b90613517565b9190505592506040518061014001604052808481526020018681526020013373ffffffffffffffffffffffffffffffffffffffff1681526020018573ffffffffffffffffffffffffffffffffffffffff1681526020013481526020015f6004811115611caa57611ca9612d43565b5b81526020014281526020015f815260200160405180602001604052805f8152508152602001600115158152505f5f8581526020019081526020015f205f820151815f0155602082015181600101556040820151816002015f6101000a81548173ffffffffffffffffffffffffffffffffffffffff021916908373ffffffffffffffffffffffffffffffffffffffff1602179055506060820151816003015f6101000a81548173ffffffffffffffffffffffffffffffffffffffff021916908373ffffffffffffffffffffffffffffffffffffffff1602179055506080820151816004015560a0820151816005015f6101000a81548160ff02191690836004811115611db857611db7612d43565b5b021790555060c0820151816006015560e08201518160070155610100820151816008019081611de79190613345565b50610120820151816009015f6101000a81548160ff0219169083151502179055509050508260015f8781526020019081526020015f20819055503373ffffffffffffffffffffffffffffffffffffffff1685847fa96863da5e2cb895c2d739ef4b0a2bf93464d7bb3a3bf098c0af12c1b404c43a8734604051611e6b92919061355e565b60405180910390a4505092915050565b600760149054906101000a900460ff1615611ec2576040517f35242d4900000000000000000000000000000000000000000000000000000000815260040160405180910390fd5b805f5f8281526020019081526020015f206009015f9054906101000a900460ff16611f19576040517f5a72877700000000000000000000000000000000000000000000000000000000815260040160405180910390fd5b5f5f5f8481526020019081526020015f2090505f6004811115611f3f57611f3e612d43565b5b816005015f9054906101000a900460ff166004811115611f6257611f61612d43565b5b14611f99576040517fb49a998600000000000000000000000000000000000000000000000000000000815260040160405180910390fd5b806002015f9054906101000a900473ffffffffffffffffffffffffffffffffffffffff1673ffffffffffffffffffffffffffffffffffffffff163373ffffffffffffffffffffffffffffffffffffffff1614158015612045575060035f9054906101000a900473ffffffffffffffffffffffffffffffffffffffff1673ffffffffffffffffffffffffffffffffffffffff163373ffffffffffffffffffffffffffffffffffffffff1614155b1561207c576040517f35242d4900000000000000000000000000000000000000000000000000000000815260040160405180910390fd5b5f7f000000000000000000000000000000000000000000000000000000000000000073ffffffffffffffffffffffffffffffffffffffff1663b9db15b483600101546040518263ffffffff1660e01b81526004016120da9190612a58565b5f60405180830381865afa1580156120f4573d5f5f3e3d5ffd5b505050506040513d5f823e3d601f19601f8201168201806040525081019061211c919061370e565b90505f600581111561213157612130612d43565b5b8160a00151600581111561214857612147612d43565b5b1461217f576040517fb49a998600000000000000000000000000000000000000000000000000000000815260040160405180910390fd5b6004826005015f6101000a81548160ff021916908360048111156121a6576121a5612d43565b5b02179055504282600701819055505f826002015f9054906101000a900473ffffffffffffffffffffffffffffffffffffffff1673ffffffffffffffffffffffffffffffffffffffff16836004015460405161220090613003565b5f6040518083038185875af1925050503d805f811461223a576040519150601f19603f3d011682016040523d82523d5f602084013e61223f565b606091505b505090508061227a576040517fc091f29c00000000000000000000000000000000000000000000000000000000815260040160405180910390fd5b847f0d977c6b1a383ac5ce532b4a668d0ef9ad38478e1a5ff28abb221f4b682b264360405160405180910390a2826002015f9054906101000a900473ffffffffffffffffffffffffffffffffffffffff1673ffffffffffffffffffffffffffffffffffffffff16857feac97bc1917fcedc984e3d0671d4e83b359890323d5d1c2de32b28d17c356ced85600401546040516123159190612a58565b60405180910390a35050505050565b60035f9054906101000a900473ffffffffffffffffffffffffffffffffffffffff1673ffffffffffffffffffffffffffffffffffffffff163373ffffffffffffffffffffffffffffffffffffffff16146123aa576040517f35242d4900000000000000000000000000000000000000000000000000000000815260040160405180910390fd5b805f73ffffffffffffffffffffffffffffffffffffffff168173ffffffffffffffffffffffffffffffffffffffff1603612410576040517f6edc7e2f00000000000000000000000000000000000000000000000000000000815260040160405180910390fd5b8160075f6101000a81548173ffffffffffffffffffffffffffffffffffffffff021916908373ffffffffffffffffffffffffffffffffffffffff1602179055505050565b600760149054906101000a900460ff161561249b576040517f35242d4900000000000000000000000000000000000000000000000000000000815260040160405180910390fd5b805f5f8281526020019081526020015f206009015f9054906101000a900460ff166124f2576040517f5a72877700000000000000000000000000000000000000000000000000000000815260040160405180910390fd5b5f5f5f8481526020019081526020015f2090505f600481111561251857612517612d43565b5b816005015f9054906101000a900460ff16600481111561253b5761253a612d43565b5b14612572576040517fb49a998600000000000000000000000000000000000000000000000000000000815260040160405180910390fd5b806002015f9054906101000a900473ffffffffffffffffffffffffffffffffffffffff1673ffffffffffffffffffffffffffffffffffffffff163373ffffffffffffffffffffffffffffffffffffffff161415801561261e575060035f9054906101000a900473ffffffffffffffffffffffffffffffffffffffff1673ffffffffffffffffffffffffffffffffffffffff163373ffffffffffffffffffffffffffffffffffffffff1614155b15612655576040517f35242d4900000000000000000000000000000000000000000000000000000000815260040160405180910390fd5b5f7f000000000000000000000000000000000000000000000000000000000000000073ffffffffffffffffffffffffffffffffffffffff1663b9db15b483600101546040518263ffffffff1660e01b81526004016126b39190612a58565b5f60405180830381865afa1580156126cd573d5f5f3e3d5ffd5b505050506040513d5f823e3d601f19601f820116820180604052508101906126f5919061370e565b90506004600581111561270b5761270a612d43565b5b8160a00151600581111561272257612721612d43565b5b14158015612758575060058081111561273e5761273d612d43565b5b8160a00151600581111561275557612754612d43565b5b14155b1561278f576040517f92506a0800000000000000000000000000000000000000000000000000000000815260040160405180910390fd5b5f61271060065484600401546127a59190613044565b6127af91906130b2565b90505f8184600401546127c291906130e2565b90506001846005015f6101000a81548160ff021916908360048111156127eb576127ea612d43565b5b02179055504284600701819055508160085f82825461280a9190613115565b925050819055505f846003015f9054906101000a900473ffffffffffffffffffffffffffffffffffffffff1673ffffffffffffffffffffffffffffffffffffffff168260405161285990613003565b5f6040518083038185875af1925050503d805f8114612893576040519150601f19603f3d011682016040523d82523d5f602084013e612898565b606091505b50509050806128d3576040517fc091f29c00000000000000000000000000000000000000000000000000000000815260040160405180910390fd5b846003015f9054906101000a900473ffffffffffffffffffffffffffffffffffffffff1673ffffffffffffffffffffffffffffffffffffffff16877f07dd78b97459a0754e75d3d53bbd26afd8a683f317c40b50eea07d05c49f966b848660405161293f929190612faf565b60405180910390a350505050505050565b6040518061014001604052805f81526020015f81526020015f73ffffffffffffffffffffffffffffffffffffffff1681526020015f73ffffffffffffffffffffffffffffffffffffffff1681526020015f81526020015f60048111156129b9576129b8612d43565b5b81526020015f81526020015f8152602001606081526020015f151581525090565b5f604051905090565b5f5ffd5b5f5ffd5b5f819050919050565b6129fd816129eb565b8114612a07575f5ffd5b50565b5f81359050612a18816129f4565b92915050565b5f60208284031215612a3357612a326129e3565b5b5f612a4084828501612a0a565b91505092915050565b612a52816129eb565b82525050565b5f602082019050612a6b5f830184612a49565b92915050565b5f8115159050919050565b612a8581612a71565b8114612a8f575f5ffd5b50565b5f81359050612aa081612a7c565b92915050565b5f60208284031215612abb57612aba6129e3565b5b5f612ac884828501612a92565b91505092915050565b5f5f60408385031215612ae757612ae66129e3565b5b5f612af485828601612a0a565b9250506020612b0585828601612a92565b9150509250929050565b612b1881612a71565b82525050565b5f602082019050612b315f830184612b0f565b92915050565b5f73ffffffffffffffffffffffffffffffffffffffff82169050919050565b5f612b6082612b37565b9050919050565b612b7081612b56565b82525050565b5f602082019050612b895f830184612b67565b92915050565b5f5ffd5b5f5ffd5b5f601f19601f8301169050919050565b7f4e487b71000000000000000000000000000000000000000000000000000000005f52604160045260245ffd5b612bdd82612b97565b810181811067ffffffffffffffff82111715612bfc57612bfb612ba7565b5b80604052505050565b5f612c0e6129da565b9050612c1a8282612bd4565b919050565b5f67ffffffffffffffff821115612c3957612c38612ba7565b5b612c4282612b97565b9050602081019050919050565b828183375f83830152505050565b5f612c6f612c6a84612c1f565b612c05565b905082815260208101848484011115612c8b57612c8a612b93565b5b612c96848285612c4f565b509392505050565b5f82601f830112612cb257612cb1612b8f565b5b8135612cc2848260208601612c5d565b91505092915050565b5f5f60408385031215612ce157612ce06129e3565b5b5f612cee85828601612a0a565b925050602083013567ffffffffffffffff811115612d0f57612d0e6129e7565b5b612d1b85828601612c9e565b9150509250929050565b612d2e816129eb565b82525050565b612d3d81612b56565b82525050565b7f4e487b71000000000000000000000000000000000000000000000000000000005f52602160045260245ffd5b60058110612d8157612d80612d43565b5b50565b5f819050612d9182612d70565b919050565b5f612da082612d84565b9050919050565b612db081612d96565b82525050565b5f81519050919050565b5f82825260208201905092915050565b8281835e5f83830152505050565b5f612de882612db6565b612df28185612dc0565b9350612e02818560208601612dd0565b612e0b81612b97565b840191505092915050565b612e1f81612a71565b82525050565b5f61014083015f830151612e3b5f860182612d25565b506020830151612e4e6020860182612d25565b506040830151612e616040860182612d34565b506060830151612e746060860182612d34565b506080830151612e876080860182612d25565b5060a0830151612e9a60a0860182612da7565b5060c0830151612ead60c0860182612d25565b5060e0830151612ec060e0860182612d25565b50610100830151848203610100860152612eda8282612dde565b915050610120830151612ef1610120860182612e16565b508091505092915050565b5f6020820190508181035f830152612f148184612e25565b905092915050565b612f2581612b56565b8114612f2f575f5ffd5b50565b5f81359050612f4081612f1c565b92915050565b5f60208284031215612f5b57612f5a6129e3565b5b5f612f6884828501612f32565b91505092915050565b5f5f60408385031215612f8757612f866129e3565b5b5f612f9485828601612a0a565b9250506020612fa585828601612f32565b9150509250929050565b5f604082019050612fc25f830185612a49565b612fcf6020830184612a49565b9392505050565b5f81905092915050565b50565b5f612fee5f83612fd6565b9150612ff982612fe0565b5f82019050919050565b5f61300d82612fe3565b9150819050919050565b7f4e487b71000000000000000000000000000000000000000000000000000000005f52601160045260245ffd5b5f61304e826129eb565b9150613059836129eb565b9250828202613067816129eb565b9150828204841483151761307e5761307d613017565b5b5092915050565b7f4e487b71000000000000000000000000000000000000000000000000000000005f52601260045260245ffd5b5f6130bc826129eb565b91506130c7836129eb565b9250826130d7576130d6613085565b5b828204905092915050565b5f6130ec826129eb565b91506130f7836129eb565b925082820390508181111561310f5761310e613017565b5b92915050565b5f61311f826129eb565b915061312a836129eb565b925082820190508082111561314257613141613017565b5b92915050565b7f4e487b71000000000000000000000000000000000000000000000000000000005f52602260045260245ffd5b5f600282049050600182168061318c57607f821691505b60208210810361319f5761319e613148565b5b50919050565b5f819050815f5260205f209050919050565b5f6020601f8301049050919050565b5f82821b905092915050565b5f600883026132017fffffffffffffffffffffffffffffffffffffffffffffffffffffffffffffffff826131c6565b61320b86836131c6565b95508019841693508086168417925050509392505050565b5f819050919050565b5f61324661324161323c846129eb565b613223565b6129eb565b9050919050565b5f819050919050565b61325f8361322c565b61327361326b8261324d565b8484546131d2565b825550505050565b5f5f905090565b61328a61327b565b613295818484613256565b505050565b5b818110156132b8576132ad5f82613282565b60018101905061329b565b5050565b601f8211156132fd576132ce816131a5565b6132d7846131b7565b810160208510156132e6578190505b6132fa6132f2856131b7565b83018261329a565b50505b505050565b5f82821c905092915050565b5f61331d5f1984600802613302565b1980831691505092915050565b5f613335838361330e565b9150826002028217905092915050565b61334e82612db6565b67ffffffffffffffff81111561336757613366612ba7565b5b6133718254613175565b61337c8282856132bc565b5f60209050601f8311600181146133ad575f841561339b578287015190505b6133a5858261332a565b86555061340c565b601f1984166133bb866131a5565b5f5b828110156133e2578489015182556001820191506020850194506020810190506133bd565b868310156133ff57848901516133fb601f89168261330e565b8355505b6001600288020188555050505b505050505050565b5f82825260208201905092915050565b5f61342e82612db6565b6134388185613414565b9350613448818560208601612dd0565b61345181612b97565b840191505092915050565b5f6020820190508181035f8301526134748184613424565b905092915050565b5f8151905061348a81612a7c565b92915050565b5f8151905061349e81612f1c565b92915050565b600681106134b0575f5ffd5b50565b5f815190506134c1816134a4565b92915050565b5f5f5f606084860312156134de576134dd6129e3565b5b5f6134eb8682870161347c565b93505060206134fc86828701613490565b925050604061350d868287016134b3565b9150509250925092565b5f613521826129eb565b91507fffffffffffffffffffffffffffffffffffffffffffffffffffffffffffffffff820361355357613552613017565b5b600182019050919050565b5f6040820190506135715f830185612b67565b61357e6020830184612a49565b9392505050565b5f5ffd5b5f5ffd5b5f8151905061359b816129f4565b92915050565b5f6135b36135ae84612c1f565b612c05565b9050828152602081018484840111156135cf576135ce612b93565b5b6135da848285612dd0565b509392505050565b5f82601f8301126135f6576135f5612b8f565b5b81516136068482602086016135a1565b91505092915050565b5f610100828403121561362557613624613585565b5b613630610100612c05565b90505f61363f8482850161358d565b5f83015250602082015167ffffffffffffffff81111561366257613661613589565b5b61366e848285016135e2565b602083015250604082015167ffffffffffffffff81111561369257613691613589565b5b61369e848285016135e2565b60408301525060606136b284828501613490565b60608301525060806136c68482850161358d565b60808301525060a06136da848285016134b3565b60a08301525060c06136ee84828501613490565b60c08301525060e06137028482850161347c565b60e08301525092915050565b5f60208284031215613723576137226129e3565b5b5f82015167ffffffffffffffff8111156137405761373f6129e7565b5b61374c8482850161360f565b9150509291505056fea2646970667358221220a78177f2e36c53fc313b492fc0b0e6845c6f017a01519e53326717840bc4bee464736f6c634300081e0033","linkReferences":{}},"methodIdentifiers":{"acceptOwnership()":"79ba5097","cancelEscrow(uint256)":"e0182436","createEscrow(uint256,address)":"dbcd72f0","getAccumulatedFees()":"5df45a37","getDisputePeriod()":"5aea0ec4","getEscrow(uint256)":"7d19e596","getEscrowByProduct(uint256)":"6fffff30","getEscrowCount()":"16b15135","getFeeRecipient()":"4ccb20c0","getOwner()":"893d20e8","getPendingOwner()":"93596c7b","getPlatformFee()":"6ea8bc10","getProductRegistry()":"a7153c9a","isDisputePeriodActive(uint256)":"3afc6eaf","isPaused()":"b187bd26","raiseDispute(uint256,string)":"5aef573c","releaseEscrow(uint256)":"ed653164","resolveDispute(uint256,bool)":"34b25ee2","setDisputePeriod(uint256)":"a83ba53e","setFeeRecipient(address)":"e74b981b","setPaused(bool)":"16c38b3c","setPlatformFee(uint256)":"12e8e2c3","transferContractOwnership(address)":"a843c51f","withdrawFees()":"476343ee"},"id":21}