{"abi":[{"type":"constructor","inputs":[],"stateMutability":"nonpayable"},{"type":"function","name":"acceptOwnership","inputs":[],"outputs":[],"stateMutability":"nonpayable"},{"type":"function","name":"addCheckpoint","inputs":[{"name":"_productId","type":"uint256","internalType":"uint256"},{"name":"_location","type":"string","internalType":"string"},{"name":"_status","type":"uint8","internalType":"enum ProductRegistry.Status"},{"name":"_notes","type":"string","internalType":"string"},{"name":"_temperature","type":"int256","internalType":"int256"}],"outputs":[],"stateMutability":"nonpayable"},{"type":"function","name":"assignRole","inputs":[{"name":"_user","type":"address","internalType":"address"},{"name":"_role","type":"uint8","internalType":"enum ProductRegistry.Role"}],"outputs":[],"stateMutability":"nonpayable"},{"type":"function","name":"batchAssignRoles","inputs":[{"name":"_users","type":"address[]","internalType":"address[]"},{"name":"_roles","type":"uint8[]","internalType":"enum ProductRegistry.Role[]"}],"outputs":[],"stateMutability":"nonpayable"},{"type":"function","name":"checkTemperatureCompliance","inputs":[{"name":"_productId","type":"uint256","internalType":"uint256"}],"outputs":[{"name":"compliant","type":"bool","internalType":"bool"}],"stateMutability":"view"},{"type":"function","name":"getCurrentHolder","inputs":[{"name":"_productId","type":"uint256","internalType":"uint256"}],"outputs":[{"name":"","type":"address","internalType":"address"}],"stateMutability":"view"},{"type":"function","name":"getOwner","inputs":[],"outputs":[{"name":"","type":"address","internalType":"address"}],"stateMutability":"view"},{"type":"function","name":"getPendingOwner","inputs":[],"outputs":[{"name":"","type":"address","internalType":"address"}],"stateMutability":"view"},{"type":"function","name":"getProduct","inputs":[{"name":"_productId","type":"uint256","internalType":"uint256"}],"outputs":[{"name":"","type":"tuple","internalType":"struct ProductRegistry.Product","components":[{"name":"id","type":"uint256","internalType":"uint256"},{"name":"name","type":"string","internalType":"string"},{"name":"batchNumber","type":"string","internalType":"string"},{"name":"manufacturer","type":"address","internalType":"address"},{"name":"manufactureDate","type":"uint256","internalType":"uint256"},{"name":"currentStatus","type":"uint8","internalType":"enum ProductRegistry.Status"},{"name":"currentHolder","type":"address","internalType":"address"},{"name":"exists","type":"bool","internalType":"bool"}]}],"stateMutability":"view"},{"type":"function","name":"getProductCheckpoints","inputs":[{"name":"_productId","type":"uint256","internalType":"uint256"}],"outputs":[{"name":"","type":"tuple[]","internalType":"struct ProductRegistry.Checkpoint[]","components":[{"name":"handler","type":"address","internalType":"address"},{"name":"location","type":"string","internalType":"string"},{"name":"timestamp","type":"uint256","internalType":"uint256"},{"name":"status","type":"uint8","internalType":"enum ProductRegistry.Status"},{"name":"notes","type":"string","internalType":"string"},{"name":"temperature","type":"int256","internalType":"int256"},{"name":"temperatureInRange","type":"bool","internalType":"bool"}]}],"stateMutability":"view"},{"type":"function","name":"getProductCount","inputs":[],"outputs":[{"name":"","type":"uint256","internalType":"uint256"}],"stateMutability":"view"},{"type":"function","name":"getProductsByManufacturer","inputs":[{"name":"_manufacturer","type":"address","internalType":"address"},{"name":"_maxResults","type":"uint256","internalType":"uint256"}],"outputs":[{"name":"productIds","type":"uint256[]","internalType":"uint256[]"}],"stateMutability":"view"},{"type":"function","name":"getProductsByStatus","inputs":[{"name":"_status","type":"uint8","internalType":"enum ProductRegistry.Status"},{"name":"_maxResults","type":"uint256","internalType":"uint256"}],"outputs":[{"name":"productIds","type":"uint256[]","internalType":"uint256[]"}],"stateMutability":"view"},{"type":"function","name":"getTemperatureThresholds","inputs":[],"outputs":[{"name":"minTemp","type":"int256","internalType":"int256"},{"name":"maxTemp","type":"int256","internalType":"int256"}],"stateMutability":"view"},{"type":"function","name":"getUserRole","inputs":[{"name":"_user","type":"address","internalType":"address"}],"outputs":[{"name":"","type":"uint8","internalType":"enum ProductRegistry.Role"}],"stateMutability":"view"},{"type":"function","name":"isAuthorized","inputs":[{"name":"_user","type":"address","internalType":"address"}],"outputs":[{"name":"","type":"bool","internalType":"bool"}],"stateMutability":"view"},{"type":"function","name":"isPaused","inputs":[],"outputs":[{"name":"","type":"bool","internalType":"bool"}],"stateMutability":"view"},{"type":"function","name":"registerProduct","inputs":[{"name":"_name","type":"string","internalType":"string"},{"name":"_batchNumber","type":"string","internalType":"string"}],"outputs":[{"name":"productId","type":"uint256","internalType":"uint256"}],"stateMutability":"nonpayable"},{"type":"function","name":"revokeUser","inputs":[{"name":"_user","type":"address","internalType":"address"}],"outputs":[],"stateMutability":"nonpayable"},{"type":"function","name":"setPaused","inputs":[{"name":"_paused","type":"bool","internalType":"bool"}],"outputs":[],"stateMutability":"nonpayable"},{"type":"function","name":"setTemperatureThresholds","inputs":[{"name":"_minTemp","type":"int256","internalType":"int256"},{"name":"_maxTemp","type":"int256","internalType":"int256"}],"outputs":[],"stateMutability":"nonpayable"},{"type":"function","name":"transferContractOwnership","inputs":[{"name":"_newOwner","type":"address","internalType":"address"}],"outputs":[],"stateMutability":"nonpayable"},{"type":"function","name":"transferOwnership","inputs":[{"name":"_productId","type":"uint256","internalType":"uint256"},{"name":"_newHolder","type":"address","internalType":"address"}],"outputs":[],"stateMutability":"nonpayable"},{"type":"function","name":"verifyProduct","inputs":[{"name":"_productId","type":"uint256","internalType":"uint256"}],"outputs":[{"name":"exists","type":"bool","internalType":"bool"},{"name":"manufacturer","type":"address","internalType":"address"},{"name":"currentStatus","type":"uint8","internalType":"enum ProductRegistry.Status"}],"stateMutability":"view"},{"type":"event","name":"CheckpointAdded","inputs":[{"name":"productId","type":"uint256","indexed":true,"internalType":"uint256"},{"name":"handler","type":"address","indexed":true,"internalType":"address"},{"name":"location","type":"string","indexed":false,"internalType":"string"},{"name":"status","type":"uint8","indexed":false,"internalType":"enum ProductRegistry.Status"},{"name":"temperature","type":"int256","indexed":false,"internalType":"int256"}],"anonymous":false},{"type":"event","name":"ContractPausedStatusChanged","inputs":[{"name":"isPaused","type":"bool","indexed":false,"internalType":"bool"}],"anonymous":false},{"type":"event","name":"OwnerTransferred","inputs":[{"name":"previousOwner","type":"address","indexed":true,"internalType":"address"},{"name":"newOwner","type":"address","indexed":true,"internalType":"address"}],"anonymous":false},{"type":"event","name":"OwnershipTransferInitiated","inputs":[{"name":"pendingOwner","type":"address","indexed":true,"internalType":"address"}],"anonymous":false},{"type":"event","name":"OwnershipTransferred","inputs":[{"name":"productId","type":"uint256","indexed":true,"internalType":"uint256"},{"name":"from","type":"address","indexed":true,"internalType":"address"},{"name":"to","type":"address","indexed":true,"internalType":"address"}],"anonymous":false},{"type":"event","name":"ProductRegistered","inputs":[{"name":"productId","type":"uint256","indexed":true,"internalType":"uint256"},{"name":"name","type":"string","indexed":false,"internalType":"string"},{"name":"manufacturer","type":"address","indexed":true,"internalType":"address"},{"name":"batchNumber","type":"string","indexed":false,"internalType":"string"}],"anonymous":false},{"type":"event","name":"RoleAssigned","inputs":[{"name":"user","type":"address","indexed":true,"internalType":"address"},{"name":"role","type":"uint8","indexed":false,"internalType":"enum ProductRegistry.Role"}],"anonymous":false},{"type":"event","name":"StatusUpdated","inputs":[{"name":"productId","type":"uint256","indexed":true,"internalType":"uint256"},{"name":"oldStatus","type":"uint8","indexed":false,"internalType":"enum ProductRegistry.Status"},{"name":"newStatus","type":"uint8","indexed":false,"internalType":"enum ProductRegistry.Status"}],"anonymous":false},{"type":"event","name":"TemperatureAlert","inputs":[{"name":"productId","type":"uint256","indexed":true,"internalType":"uint256"},{"name":"temperature","type":"int256","indexed":false,"internalType":"int256"},{"name":"location","type":"string","indexed":false,"internalType":"string"}],"anonymous":false},{"type":"event","name":"TemperatureThresholdsUpdated","inputs":[{"name":"minTemp","type":"int256","indexed":false,"internalType":"int256"},{"name":"maxTemp","type":"int256","indexed":false,"internalType":"int256"}],"anonymous":false},{"type":"event","name":"UserRevoked","inputs":[{"name":"user","type":"address","indexed":true,"internalType":"address"}],"anonymous":false},{"type":"error","name":"ProductRegistry__AlreadyCurrentHolder","inputs":[]},{"type":"error","name":"ProductRegistry__InvalidAddress","inputs":[]},{"type":"error","name":"ProductRegistry__InvalidCheckpointData","inputs":[]},{"type":"error","name":"ProductRegistry__InvalidProductData","inputs":[]},{"type":"error","name":"ProductRegistry__InvalidRole","inputs":[]},{"type":"error","name":"ProductRegistry__InvalidStatusTransition","inputs":[]},{"type":"error","name":"ProductRegistry__NotCurrentHolder","inputs":[]},{"type":"error","name":"ProductRegistry__ProductAlreadyExists","inputs":[]},{"type":"error","name":"ProductRegistry__ProductDoesNotExist","inputs":[]},{"type":"error","name":"ProductRegistry__TemperatureOutOfRange","inputs":[{"name":"temperature","type":"int256","internalType":"int256"},{"name":"minTemp","type":"int256","internalType":"int256"},{"name":"maxTemp","type":"int256","internalType":"int256"}]},{"type":"error","name":"ProductRegistry__Unauthorized","inputs":[]}],"bytecode":{"object":"0x6080604052601460065560506007553480156018575f5ffd5b503360055f6101000a81548173ffffffffffffffffffffffffffffffffffffffff021916908373ffffffffffffffffffffffffffffffffffffffff1602179055505f6004819055505f60085f6101000a81548160ff02191690831515021790555061435c806100865f395ff3fe608060405234801561000f575f5ffd5b5060043610610156575f3560e01c8063893d20e8116100c1578063b187bd261161007a578063b187bd26146103c3578063b9b2ce68146103e1578063b9db15b414610411578063e0910faf14610441578063ef097fc414610471578063fe9fbb801461048d57610156565b8063893d20e8146102db5780638e661851146102f95780638fbd0dcf1461032957806393596c7b14610359578063987ecd6a14610377578063a843c51f146103a757610156565b80634a348da9116101135780634a348da914610219578063524e846214610237578063630a195b14610269578063662d6ce5146102855780637972f5c3146102a157806379ba5097146102d157610156565b8063034599221461015a57806316c38b3c1461017657806321835adf1461019257806327820851146101ae57806329507f73146101de5780633cc3c872146101fa575b5f5ffd5b610174600480360381019061016f919061334d565b6104bd565b005b610190600480360381019061018b9190613431565b6108b5565b005b6101ac60048036038101906101a7919061345c565b61098e565b005b6101c860048036038101906101c391906134f4565b610a98565b6040516101d59190613592565b60405180910390f35b6101f860048036038101906101f391906135ab565b610aea565b005b610202610e3c565b6040516102109291906135f8565b60405180910390f35b610221610e4c565b60405161022e919061362e565b60405180910390f35b610251600480360381019061024c9190613647565b610e55565b604051610260939291906136d6565b60405180910390f35b610283600480360381019061027e919061372e565b6110c7565b005b61029f600480360381019061029a919061381e565b6112bf565b005b6102bb60048036038101906102b69190613647565b61160d565b6040516102c8919061389c565b60405180910390f35b6102d96116a2565b005b6102e361186f565b6040516102f0919061389c565b60405180910390f35b610313600480360381019061030e9190613647565b611897565b60405161032091906138b5565b60405180910390f35b610343600480360381019061033e91906138ce565b611b85565b604051610350919061362e565b60405180910390f35b610361612110565b60405161036e919061389c565b60405180910390f35b610391600480360381019061038c9190613944565b612139565b60405161039e9190613a39565b60405180910390f35b6103c160048036038101906103bc91906134f4565b612304565b005b6103cb612478565b6040516103d891906138b5565b60405180910390f35b6103fb60048036038101906103f69190613a59565b61248d565b6040516104089190613a39565b60405180910390f35b61042b60048036038101906104269190613647565b612673565b6040516104389190613bd8565b60405180910390f35b61045b60048036038101906104569190613647565b61292a565b6040516104689190613d62565b60405180910390f35b61048b600480360381019061048691906134f4565b612bcc565b005b6104a760048036038101906104a291906134f4565b612db7565b6040516104b491906138b5565b60405180910390f35b60085f9054906101000a900460ff1615610503576040517f07fbd74800000000000000000000000000000000000000000000000000000000815260040160405180910390fd5b845f5f8281526020019081526020015f2060050160159054906101000a900460ff1661055b576040517f62607a5100000000000000000000000000000000000000000000000000000000815260040160405180910390fd5b5f8551148061056c57506101008551115b80610585575060026101006105819190613daf565b8351115b156105bc576040517f6449fe5700000000000000000000000000000000000000000000000000000000815260040160405180910390fd5b5f5f5f8881526020019081526020015f2090506105e9816005015f9054906101000a900460ff1686612e09565b61061f576040517f4a95acd100000000000000000000000000000000000000000000000000000000815260040160405180910390fd5b5f600654841215801561063457506007548413155b90508061067657877f3c26c671c9f64316389a2807601654b92327df5df41e452c2a606fbe3197702e858960405161066d929190613e38565b60405180910390a25b60015f8981526020019081526020015f206040518060e001604052803373ffffffffffffffffffffffffffffffffffffffff1681526020018981526020014281526020018860058111156106cd576106cc61351f565b5b8152602001878152602001868152602001831515815250908060018154018082558091505060019003905f5260205f2090600702015f909190919091505f820151815f015f6101000a81548173ffffffffffffffffffffffffffffffffffffffff021916908373ffffffffffffffffffffffffffffffffffffffff16021790555060208201518160010190816107639190614063565b50604082015181600201556060820151816003015f6101000a81548160ff021916908360058111156107985761079761351f565b5b021790555060808201518160040190816107b29190614063565b5060a0820151816005015560c0820151816006015f6101000a81548160ff02191690831515021790555050505f826005015f9054906101000a900460ff16905086836005015f6101000a81548160ff021916908360058111156108185761081761351f565b5b02179055503373ffffffffffffffffffffffffffffffffffffffff16897ff47d029625be6d5f1500825e4115815d398e354761e33654e71b51ab5f2c4fd18a8a8960405161086893929190614132565b60405180910390a3887fc371b0415465aff17c34272123d75d5aee0e5c80f4e0b07eaef8eb23d37f438482896040516108a292919061416e565b60405180910390a2505050505050505050565b60055f9054906101000a900473ffffffffffffffffffffffffffffffffffffffff1673ffffffffffffffffffffffffffffffffffffffff163373ffffffffffffffffffffffffffffffffffffffff161461093b576040517f07fbd74800000000000000000000000000000000000000000000000000000000815260040160405180910390fd5b8060085f6101000a81548160ff0219169083151502179055507f72bdf554ecca747be46b686bdaec16840fb0d2c780270d58d300f75a856d24238160405161098391906138b5565b60405180910390a150565b60055f9054906101000a900473ffffffffffffffffffffffffffffffffffffffff1673ffffffffffffffffffffffffffffffffffffffff163373ffffffffffffffffffffffffffffffffffffffff1614610a14576040517f07fbd74800000000000000000000000000000000000000000000000000000000815260040160405180910390fd5b808212610a4d576040517f91d27c3600000000000000000000000000000000000000000000000000000000815260040160405180910390fd5b81600681905550806007819055507f3aa9d50b345b9fb7f1f0ab6f0838d9ebb775695160bbb813dacf12bfbad007208282604051610a8c9291906135f8565b60405180910390a15050565b5f60025f8373ffffffffffffffffffffffffffffffffffffffff1673ffffffffffffffffffffffffffffffffffffffff1681526020019081526020015f205f9054906101000a900460ff169050919050565b60085f9054906101000a900460ff1615610b30576040517f07fbd74800000000000000000000000000000000000000000000000000000000815260040160405180910390fd5b815f5f8281526020019081526020015f2060050160159054906101000a900460ff16610b88576040517f62607a5100000000000000000000000000000000000000000000000000000000815260040160405180910390fd5b815f73ffffffffffffffffffffffffffffffffffffffff168173ffffffffffffffffffffffffffffffffffffffff1603610bee576040517fb79b680d00000000000000000000000000000000000000000000000000000000815260040160405180910390fd5b5f5f5f8681526020019081526020015f2090508060050160019054906101000a900473ffffffffffffffffffffffffffffffffffffffff1673ffffffffffffffffffffffffffffffffffffffff163373ffffffffffffffffffffffffffffffffffffffff1614158015610cae575060055f9054906101000a900473ffffffffffffffffffffffffffffffffffffffff1673ffffffffffffffffffffffffffffffffffffffff163373ffffffffffffffffffffffffffffffffffffffff1614155b15610ce5576040517f6e76e51300000000000000000000000000000000000000000000000000000000815260040160405180910390fd5b8373ffffffffffffffffffffffffffffffffffffffff168160050160019054906101000a900473ffffffffffffffffffffffffffffffffffffffff1673ffffffffffffffffffffffffffffffffffffffff1603610d6e576040517fce4f4d3900000000000000000000000000000000000000000000000000000000815260040160405180910390fd5b5f8160050160019054906101000a900473ffffffffffffffffffffffffffffffffffffffff169050848260050160016101000a81548173ffffffffffffffffffffffffffffffffffffffff021916908373ffffffffffffffffffffffffffffffffffffffff1602179055508473ffffffffffffffffffffffffffffffffffffffff168173ffffffffffffffffffffffffffffffffffffffff16877f16b85f49bf01212961345d3016c9a531894accf62eb7680f2045d79185cc0ec060405160405180910390a4505050505050565b5f5f600654600754915091509091565b5f600454905090565b5f5f5f5f5f5f8681526020019081526020015f20604051806101000160405290815f8201548152602001600182018054610e8e90613e93565b80601f0160208091040260200160405190810160405280929190818152602001828054610eba90613e93565b8015610f055780601f10610edc57610100808354040283529160200191610f05565b820191905f5260205f20905b815481529060010190602001808311610ee857829003601f168201915b50505050508152602001600282018054610f1e90613e93565b80601f0160208091040260200160405190810160405280929190818152602001828054610f4a90613e93565b8015610f955780601f10610f6c57610100808354040283529160200191610f95565b820191905f5260205f20905b815481529060010190602001808311610f7857829003601f168201915b50505050508152602001600382015f9054906101000a900473ffffffffffffffffffffffffffffffffffffffff1673ffffffffffffffffffffffffffffffffffffffff1673ffffffffffffffffffffffffffffffffffffffff16815260200160048201548152602001600582015f9054906101000a900460ff1660058111156110215761102061351f565b5b60058111156110335761103261351f565b5b81526020016005820160019054906101000a900473ffffffffffffffffffffffffffffffffffffffff1673ffffffffffffffffffffffffffffffffffffffff1673ffffffffffffffffffffffffffffffffffffffff1681526020016005820160159054906101000a900460ff16151515158152505090508060e0015181606001518260a00151935093509350509193909250565b60055f9054906101000a900473ffffffffffffffffffffffffffffffffffffffff1673ffffffffffffffffffffffffffffffffffffffff163373ffffffffffffffffffffffffffffffffffffffff161461114d576040517f07fbd74800000000000000000000000000000000000000000000000000000000815260040160405180910390fd5b815f73ffffffffffffffffffffffffffffffffffffffff168173ffffffffffffffffffffffffffffffffffffffff16036111b3576040517fb79b680d00000000000000000000000000000000000000000000000000000000815260040160405180910390fd5b8160025f8573ffffffffffffffffffffffffffffffffffffffff1673ffffffffffffffffffffffffffffffffffffffff1681526020019081526020015f205f6101000a81548160ff021916908360048111156112125761121161351f565b5b0217905550600160035f8573ffffffffffffffffffffffffffffffffffffffff1673ffffffffffffffffffffffffffffffffffffffff1681526020019081526020015f205f6101000a81548160ff0219169083151502179055508273ffffffffffffffffffffffffffffffffffffffff167f4ac36fa53f167ceb85964be512e01de2a3b8bdb9862f917da079deeeff689b38836040516112b29190613592565b60405180910390a2505050565b60055f9054906101000a900473ffffffffffffffffffffffffffffffffffffffff1673ffffffffffffffffffffffffffffffffffffffff163373ffffffffffffffffffffffffffffffffffffffff1614611345576040517f07fbd74800000000000000000000000000000000000000000000000000000000815260040160405180910390fd5b818190508484905014158061135c57505f84849050145b15611393576040517f91d27c3600000000000000000000000000000000000000000000000000000000815260040160405180910390fd5b5f5f90505b84849050811015611606575f73ffffffffffffffffffffffffffffffffffffffff168585838181106113cd576113cc614195565b5b90506020020160208101906113e291906134f4565b73ffffffffffffffffffffffffffffffffffffffff160361142f576040517fb79b680d00000000000000000000000000000000000000000000000000000000815260040160405180910390fd5b82828281811061144257611441614195565b5b905060200201602081019061145791906141c2565b60025f87878581811061146d5761146c614195565b5b905060200201602081019061148291906134f4565b73ffffffffffffffffffffffffffffffffffffffff1673ffffffffffffffffffffffffffffffffffffffff1681526020019081526020015f205f6101000a81548160ff021916908360048111156114dc576114db61351f565b5b0217905550600160035f8787858181106114f9576114f8614195565b5b905060200201602081019061150e91906134f4565b73ffffffffffffffffffffffffffffffffffffffff1673ffffffffffffffffffffffffffffffffffffffff1681526020019081526020015f205f6101000a81548160ff0219169083151502179055508484828181106115705761156f614195565b5b905060200201602081019061158591906134f4565b73ffffffffffffffffffffffffffffffffffffffff167f4ac36fa53f167ceb85964be512e01de2a3b8bdb9862f917da079deeeff689b388484848181106115cf576115ce614195565b5b90506020020160208101906115e491906141c2565b6040516115f19190613592565b60405180910390a28080600101915050611398565b5050505050565b5f815f5f8281526020019081526020015f2060050160159054906101000a900460ff16611666576040517f62607a5100000000000000000000000000000000000000000000000000000000815260040160405180910390fd5b5f5f8481526020019081526020015f2060050160019054906101000a900473ffffffffffffffffffffffffffffffffffffffff16915050919050565b600860019054906101000a900473ffffffffffffffffffffffffffffffffffffffff1673ffffffffffffffffffffffffffffffffffffffff163373ffffffffffffffffffffffffffffffffffffffff1614611729576040517f07fbd74800000000000000000000000000000000000000000000000000000000815260040160405180910390fd5b5f60055f9054906101000a900473ffffffffffffffffffffffffffffffffffffffff169050600860019054906101000a900473ffffffffffffffffffffffffffffffffffffffff1660055f6101000a81548173ffffffffffffffffffffffffffffffffffffffff021916908373ffffffffffffffffffffffffffffffffffffffff1602179055505f600860016101000a81548173ffffffffffffffffffffffffffffffffffffffff021916908373ffffffffffffffffffffffffffffffffffffffff16021790555060055f9054906101000a900473ffffffffffffffffffffffffffffffffffffffff1673ffffffffffffffffffffffffffffffffffffffff168173ffffffffffffffffffffffffffffffffffffffff167f8934ce4adea8d9ce0d714d2c22b86790e41b7731c84b926fbbdc1d40ff6533c960405160405180910390a350565b5f60055f9054906101000a900473ffffffffffffffffffffffffffffffffffffffff16905090565b5f815f5f8281526020019081526020015f2060050160159054906101000a900460ff166118f0576040517f62607a5100000000000000000000000000000000000000000000000000000000815260040160405180910390fd5b5f60015f8581526020019081526020015f20805480602002602001604051908101604052809291908181526020015f905b82821015611b2d578382905f5260205f2090600702016040518060e00160405290815f82015f9054906101000a900473ffffffffffffffffffffffffffffffffffffffff1673ffffffffffffffffffffffffffffffffffffffff1673ffffffffffffffffffffffffffffffffffffffff1681526020016001820180546119a690613e93565b80601f01602080910402602001604051908101604052809291908181526020018280546119d290613e93565b8015611a1d5780601f106119f457610100808354040283529160200191611a1d565b820191905f5260205f20905b815481529060010190602001808311611a0057829003601f168201915b5050505050815260200160028201548152602001600382015f9054906101000a900460ff166005811115611a5457611a5361351f565b5b6005811115611a6657611a6561351f565b5b8152602001600482018054611a7a90613e93565b80601f0160208091040260200160405190810160405280929190818152602001828054611aa690613e93565b8015611af15780601f10611ac857610100808354040283529160200191611af1565b820191905f5260205f20905b815481529060010190602001808311611ad457829003601f168201915b5050505050815260200160058201548152602001600682015f9054906101000a900460ff16151515158152505081526020019060010190611921565b505050509050600192505f5f90505b8151811015611b7d57818181518110611b5857611b57614195565b5b602002602001015160c00151611b70575f9350611b7d565b8080600101915050611b3c565b505050919050565b5f60085f9054906101000a900460ff1615611bcc576040517f07fbd74800000000000000000000000000000000000000000000000000000000815260040160405180910390fd5b6001806004811115611be157611be061351f565b5b60025f3373ffffffffffffffffffffffffffffffffffffffff1673ffffffffffffffffffffffffffffffffffffffff1681526020019081526020015f205f9054906101000a900460ff166004811115611c3d57611c3c61351f565b5b14611c74576040517ff1e6dabe00000000000000000000000000000000000000000000000000000000815260040160405180910390fd5b5f84511480611c8357505f8351145b80611c9057506101008451115b80611c9d57506101008351115b15611cd4576040517f91d27c3600000000000000000000000000000000000000000000000000000000815260040160405180910390fd5b60045f815480929190611ce6906141ed565b9190505591506040518061010001604052808381526020018581526020018481526020013373ffffffffffffffffffffffffffffffffffffffff1681526020014281526020015f6005811115611d3f57611d3e61351f565b5b81526020013373ffffffffffffffffffffffffffffffffffffffff168152602001600115158152505f5f8481526020019081526020015f205f820151815f01556020820151816001019081611d949190614063565b506040820151816002019081611daa9190614063565b506060820151816003015f6101000a81548173ffffffffffffffffffffffffffffffffffffffff021916908373ffffffffffffffffffffffffffffffffffffffff1602179055506080820151816004015560a0820151816005015f6101000a81548160ff02191690836005811115611e2557611e2461351f565b5b021790555060c08201518160050160016101000a81548173ffffffffffffffffffffffffffffffffffffffff021916908373ffffffffffffffffffffffffffffffffffffffff16021790555060e08201518160050160156101000a81548160ff02191690831515021790555090505060015f8381526020019081526020015f206040518060e001604052803373ffffffffffffffffffffffffffffffffffffffff1681526020016040518060400160405280601681526020017f4d616e75666163747572696e6720466163696c6974790000000000000000000081525081526020014281526020015f6005811115611f2057611f1f61351f565b5b81526020016040518060400160405280602081526020017f50726f647563742072656769737465726564206f6e20626c6f636b636861696e81525081526020015f815260200160011515815250908060018154018082558091505060019003905f5260205f2090600702015f909190919091505f820151815f015f6101000a81548173ffffffffffffffffffffffffffffffffffffffff021916908373ffffffffffffffffffffffffffffffffffffffff1602179055506020820151816001019081611fec9190614063565b50604082015181600201556060820151816003015f6101000a81548160ff021916908360058111156120215761202061351f565b5b0217905550608082015181600401908161203b9190614063565b5060a0820151816005015560c0820151816006015f6101000a81548160ff02191690831515021790555050503373ffffffffffffffffffffffffffffffffffffffff16827f838c369916a00718e3c9a57138856e764284faf2f14540d835f0869316b8292a86866040516120b0929190614234565b60405180910390a33373ffffffffffffffffffffffffffffffffffffffff16827ff47d029625be6d5f1500825e4115815d398e354761e33654e71b51ab5f2c4fd15f5f6040516121019291906142ec565b60405180910390a35092915050565b5f600860019054906101000a900473ffffffffffffffffffffffffffffffffffffffff16905090565b60605f5f90505f8367ffffffffffffffff81111561215a576121596131d3565b5b6040519080825280602002602001820160405280156121885781602001602082028036833780820191505090505b5090505f5f90505b600454811080156121a057508483105b1561225b578560058111156121b8576121b761351f565b5b5f5f8381526020019081526020015f206005015f9054906101000a900460ff1660058111156121ea576121e961351f565b5b14801561221457505f5f8281526020019081526020015f2060050160159054906101000a900460ff165b15612248578082848151811061222d5761222c614195565b5b6020026020010181815250508280612244906141ed565b9350505b8080612253906141ed565b915050612190565b508167ffffffffffffffff811115612276576122756131d3565b5b6040519080825280602002602001820160405280156122a45781602001602082028036833780820191505090505b5092505f5f90505b828110156122fb578181815181106122c7576122c6614195565b5b60200260200101518482815181106122e2576122e1614195565b5b60200260200101818152505080806001019150506122ac565b50505092915050565b60055f9054906101000a900473ffffffffffffffffffffffffffffffffffffffff1673ffffffffffffffffffffffffffffffffffffffff163373ffffffffffffffffffffffffffffffffffffffff161461238a576040517f07fbd74800000000000000000000000000000000000000000000000000000000815260040160405180910390fd5b805f73ffffffffffffffffffffffffffffffffffffffff168173ffffffffffffffffffffffffffffffffffffffff16036123f0576040517fb79b680d00000000000000000000000000000000000000000000000000000000815260040160405180910390fd5b81600860016101000a81548173ffffffffffffffffffffffffffffffffffffffff021916908373ffffffffffffffffffffffffffffffffffffffff1602179055508173ffffffffffffffffffffffffffffffffffffffff167f20f5afdf40bf7b43c89031a5d4369a30b159e512d164aa46124bcb706b4a1caf60405160405180910390a25050565b5f60085f9054906101000a900460ff16905090565b60605f5f90505f8367ffffffffffffffff8111156124ae576124ad6131d3565b5b6040519080825280602002602001820160405280156124dc5781602001602082028036833780820191505090505b5090505f5f90505b600454811080156124f457508483105b156125ca578573ffffffffffffffffffffffffffffffffffffffff165f5f8381526020019081526020015f206003015f9054906101000a900473ffffffffffffffffffffffffffffffffffffffff1673ffffffffffffffffffffffffffffffffffffffff1614801561258357505f5f8281526020019081526020015f2060050160159054906101000a900460ff165b156125b7578082848151811061259c5761259b614195565b5b60200260200101818152505082806125b3906141ed565b9350505b80806125c2906141ed565b9150506124e4565b508167ffffffffffffffff8111156125e5576125e46131d3565b5b6040519080825280602002602001820160405280156126135781602001602082028036833780820191505090505b5092505f5f90505b8281101561266a5781818151811061263657612635614195565b5b602002602001015184828151811061265157612650614195565b5b602002602001018181525050808060010191505061261b565b50505092915050565b61267b6130f8565b815f5f8281526020019081526020015f2060050160159054906101000a900460ff166126d3576040517f62607a5100000000000000000000000000000000000000000000000000000000815260040160405180910390fd5b5f5f8481526020019081526020015f20604051806101000160405290815f820154815260200160018201805461270890613e93565b80601f016020809104026020016040519081016040528092919081815260200182805461273490613e93565b801561277f5780601f106127565761010080835404028352916020019161277f565b820191905f5260205f20905b81548152906001019060200180831161276257829003601f168201915b5050505050815260200160028201805461279890613e93565b80601f01602080910402602001604051908101604052809291908181526020018280546127c490613e93565b801561280f5780601f106127e65761010080835404028352916020019161280f565b820191905f5260205f20905b8154815290600101906020018083116127f257829003601f168201915b50505050508152602001600382015f9054906101000a900473ffffffffffffffffffffffffffffffffffffffff1673ffffffffffffffffffffffffffffffffffffffff1673ffffffffffffffffffffffffffffffffffffffff16815260200160048201548152602001600582015f9054906101000a900460ff16600581111561289b5761289a61351f565b5b60058111156128ad576128ac61351f565b5b81526020016005820160019054906101000a900473ffffffffffffffffffffffffffffffffffffffff1673ffffffffffffffffffffffffffffffffffffffff1673ffffffffffffffffffffffffffffffffffffffff1681526020016005820160159054906101000a900460ff161515151581525050915050919050565b6060815f5f8281526020019081526020015f2060050160159054906101000a900460ff16612984576040517f62607a5100000000000000000000000000000000000000000000000000000000815260040160405180910390fd5b60015f8481526020019081526020015f20805480602002602001604051908101604052809291908181526020015f905b82821015612bc0578382905f5260205f2090600702016040518060e00160405290815f82015f9054906101000a900473ffffffffffffffffffffffffffffffffffffffff1673ffffffffffffffffffffffffffffffffffffffff1673ffffffffffffffffffffffffffffffffffffffff168152602001600182018054612a3990613e93565b80601f0160208091040260200160405190810160405280929190818152602001828054612a6590613e93565b8015612ab05780601f10612a8757610100808354040283529160200191612ab0565b820191905f5260205f20905b815481529060010190602001808311612a9357829003601f168201915b5050505050815260200160028201548152602001600382015f9054906101000a900460ff166005811115612ae757612ae661351f565b5b6005811115612af957612af861351f565b5b8152602001600482018054612b0d90613e93565b80601f0160208091040260200160405190810160405280929190818152602001828054612b3990613e93565b8015612b845780601f10612b5b57610100808354040283529160200191612b84565b820191905f5260205f20905b815481529060010190602001808311612b6757829003601f168201915b5050505050815260200160058201548152602001600682015f9054906101000a900460ff161515151581525050815260200190600101906129b4565b50505050915050919050565b60055f9054906101000a900473ffffffffffffffffffffffffffffffffffffffff1673ffffffffffffffffffffffffffffffffffffffff163373ffffffffffffffffffffffffffffffffffffffff1614612c52576040517f07fbd74800000000000000000000000000000000000000000000000000000000815260040160405180910390fd5b805f73ffffffffffffffffffffffffffffffffffffffff168173ffffffffffffffffffffffffffffffffffffffff1603612cb8576040517fb79b680d00000000000000000000000000000000000000000000000000000000815260040160405180910390fd5b5f60025f8473ffffffffffffffffffffffffffffffffffffffff1673ffffffffffffffffffffffffffffffffffffffff1681526020019081526020015f205f6101000a81548160ff02191690836004811115612d1757612d1661351f565b5b02179055505f60035f8473ffffffffffffffffffffffffffffffffffffffff1673ffffffffffffffffffffffffffffffffffffffff1681526020019081526020015f205f6101000a81548160ff0219169083151502179055508173ffffffffffffffffffffffffffffffffffffffff167fb43ac7bf01d16ebcb8c868a4c03fecb1f6984ea4fa1a52c116ef282b8dbb17c560405160405180910390a25050565b5f60035f8373ffffffffffffffffffffffffffffffffffffffff1673ffffffffffffffffffffffffffffffffffffffff1681526020019081526020015f205f9054906101000a900460ff169050919050565b5f816005811115612e1d57612e1c61351f565b5b836005811115612e3057612e2f61351f565b5b03612e3e57600190506130f2565b5f6005811115612e5157612e5061351f565b5b836005811115612e6457612e6361351f565b5b03612e985760016005811115612e7d57612e7c61351f565b5b826005811115612e9057612e8f61351f565b5b1490506130f2565b60016005811115612eac57612eab61351f565b5b836005811115612ebf57612ebe61351f565b5b03612f515760026005811115612ed857612ed761351f565b5b826005811115612eeb57612eea61351f565b5b1480612f1b575060036005811115612f0657612f0561351f565b5b826005811115612f1957612f1861351f565b5b145b80612f4a575060046005811115612f3557612f3461351f565b5b826005811115612f4857612f4761351f565b5b145b90506130f2565b60026005811115612f6557612f6461351f565b5b836005811115612f7857612f7761351f565b5b03612fdb5760016005811115612f9157612f9061351f565b5b826005811115612fa457612fa361351f565b5b1480612fd4575060046005811115612fbf57612fbe61351f565b5b826005811115612fd257612fd161351f565b5b145b90506130f2565b60036005811115612fef57612fee61351f565b5b8360058111156130025761300161351f565b5b03613094576002600581111561301b5761301a61351f565b5b82600581111561302e5761302d61351f565b5b148061305e5750600160058111156130495761304861351f565b5b82600581111561305c5761305b61351f565b5b145b8061308d5750600460058111156130785761307761351f565b5b82600581111561308b5761308a61351f565b5b145b90506130f2565b600460058111156130a8576130a761351f565b5b8360058111156130bb576130ba61351f565b5b036130ee576005808111156130d3576130d261351f565b5b8260058111156130e6576130e561351f565b5b1490506130f2565b5f90505b92915050565b6040518061010001604052805f815260200160608152602001606081526020015f73ffffffffffffffffffffffffffffffffffffffff1681526020015f81526020015f600581111561314d5761314c61351f565b5b81526020015f73ffffffffffffffffffffffffffffffffffffffff1681526020015f151581525090565b5f604051905090565b5f5ffd5b5f5ffd5b5f819050919050565b61319a81613188565b81146131a4575f5ffd5b50565b5f813590506131b581613191565b92915050565b5f5ffd5b5f5ffd5b5f601f19601f8301169050919050565b7f4e487b71000000000000000000000000000000000000000000000000000000005f52604160045260245ffd5b613209826131c3565b810181811067ffffffffffffffff82111715613228576132276131d3565b5b80604052505050565b5f61323a613177565b90506132468282613200565b919050565b5f67ffffffffffffffff821115613265576132646131d3565b5b61326e826131c3565b9050602081019050919050565b828183375f83830152505050565b5f61329b6132968461324b565b613231565b9050828152602081018484840111156132b7576132b66131bf565b5b6132c284828561327b565b509392505050565b5f82601f8301126132de576132dd6131bb565b5b81356132ee848260208601613289565b91505092915050565b60068110613303575f5ffd5b50565b5f81359050613314816132f7565b92915050565b5f819050919050565b61332c8161331a565b8114613336575f5ffd5b50565b5f8135905061334781613323565b92915050565b5f5f5f5f5f60a0868803121561336657613365613180565b5b5f613373888289016131a7565b955050602086013567ffffffffffffffff81111561339457613393613184565b5b6133a0888289016132ca565b94505060406133b188828901613306565b935050606086013567ffffffffffffffff8111156133d2576133d1613184565b5b6133de888289016132ca565b92505060806133ef88828901613339565b9150509295509295909350565b5f8115159050919050565b613410816133fc565b811461341a575f5ffd5b50565b5f8135905061342b81613407565b92915050565b5f6020828403121561344657613445613180565b5b5f6134538482850161341d565b91505092915050565b5f5f6040838503121561347257613471613180565b5b5f61347f85828601613339565b925050602061349085828601613339565b9150509250929050565b5f73ffffffffffffffffffffffffffffffffffffffff82169050919050565b5f6134c38261349a565b9050919050565b6134d3816134b9565b81146134dd575f5ffd5b50565b5f813590506134ee816134ca565b92915050565b5f6020828403121561350957613508613180565b5b5f613516848285016134e0565b91505092915050565b7f4e487b71000000000000000000000000000000000000000000000000000000005f52602160045260245ffd5b6005811061355d5761355c61351f565b5b50565b5f81905061356d8261354c565b919050565b5f61357c82613560565b9050919050565b61358c81613572565b82525050565b5f6020820190506135a55f830184613583565b92915050565b5f5f604083850312156135c1576135c0613180565b5b5f6135ce858286016131a7565b92505060206135df858286016134e0565b9150509250929050565b6135f28161331a565b82525050565b5f60408201905061360b5f8301856135e9565b61361860208301846135e9565b9392505050565b61362881613188565b82525050565b5f6020820190506136415f83018461361f565b92915050565b5f6020828403121561365c5761365b613180565b5b5f613669848285016131a7565b91505092915050565b61367b816133fc565b82525050565b61368a816134b9565b82525050565b600681106136a1576136a061351f565b5b50565b5f8190506136b182613690565b919050565b5f6136c0826136a4565b9050919050565b6136d0816136b6565b82525050565b5f6060820190506136e95f830186613672565b6136f66020830185613681565b61370360408301846136c7565b949350505050565b60058110613717575f5ffd5b50565b5f813590506137288161370b565b92915050565b5f5f6040838503121561374457613743613180565b5b5f613751858286016134e0565b92505060206137628582860161371a565b9150509250929050565b5f5ffd5b5f5ffd5b5f5f83601f840112613789576137886131bb565b5b8235905067ffffffffffffffff8111156137a6576137a561376c565b5b6020830191508360208202830111156137c2576137c1613770565b5b9250929050565b5f5f83601f8401126137de576137dd6131bb565b5b8235905067ffffffffffffffff8111156137fb576137fa61376c565b5b60208301915083602082028301111561381757613816613770565b5b9250929050565b5f5f5f5f6040858703121561383657613835613180565b5b5f85013567ffffffffffffffff81111561385357613852613184565b5b61385f87828801613774565b9450945050602085013567ffffffffffffffff81111561388257613881613184565b5b61388e878288016137c9565b925092505092959194509250565b5f6020820190506138af5f830184613681565b92915050565b5f6020820190506138c85f830184613672565b92915050565b5f5f604083850312156138e4576138e3613180565b5b5f83013567ffffffffffffffff81111561390157613900613184565b5b61390d858286016132ca565b925050602083013567ffffffffffffffff81111561392e5761392d613184565b5b61393a858286016132ca565b9150509250929050565b5f5f6040838503121561395a57613959613180565b5b5f61396785828601613306565b9250506020613978858286016131a7565b9150509250929050565b5f81519050919050565b5f82825260208201905092915050565b5f819050602082019050919050565b6139b481613188565b82525050565b5f6139c583836139ab565b60208301905092915050565b5f602082019050919050565b5f6139e782613982565b6139f1818561398c565b93506139fc8361399c565b805f5b83811015613a2c578151613a1388826139ba565b9750613a1e836139d1565b9250506001810190506139ff565b5085935050505092915050565b5f6020820190508181035f830152613a5181846139dd565b905092915050565b5f5f60408385031215613a6f57613a6e613180565b5b5f613a7c858286016134e0565b9250506020613a8d858286016131a7565b9150509250929050565b5f81519050919050565b5f82825260208201905092915050565b8281835e5f83830152505050565b5f613ac982613a97565b613ad38185613aa1565b9350613ae3818560208601613ab1565b613aec816131c3565b840191505092915050565b613b00816134b9565b82525050565b613b0f816136b6565b82525050565b613b1e816133fc565b82525050565b5f61010083015f830151613b3a5f8601826139ab565b5060208301518482036020860152613b528282613abf565b91505060408301518482036040860152613b6c8282613abf565b9150506060830151613b816060860182613af7565b506080830151613b9460808601826139ab565b5060a0830151613ba760a0860182613b06565b5060c0830151613bba60c0860182613af7565b5060e0830151613bcd60e0860182613b15565b508091505092915050565b5f6020820190508181035f830152613bf08184613b24565b905092915050565b5f81519050919050565b5f82825260208201905092915050565b5f819050602082019050919050565b613c2a8161331a565b82525050565b5f60e083015f830151613c455f860182613af7565b5060208301518482036020860152613c5d8282613abf565b9150506040830151613c7260408601826139ab565b506060830151613c856060860182613b06565b5060808301518482036080860152613c9d8282613abf565b91505060a0830151613cb260a0860182613c21565b5060c0830151613cc560c0860182613b15565b508091505092915050565b5f613cdb8383613c30565b905092915050565b5f602082019050919050565b5f613cf982613bf8565b613d038185613c02565b935083602082028501613d1585613c12565b805f5b85811015613d505784840389528151613d318582613cd0565b9450613d3c83613ce3565b925060208a01995050600181019050613d18565b50829750879550505050505092915050565b5f6020820190508181035f830152613d7a8184613cef565b905092915050565b7f4e487b71000000000000000000000000000000000000000000000000000000005f52601160045260245ffd5b5f613db982613188565b9150613dc483613188565b9250828202613dd281613188565b91508282048414831517613de957613de8613d82565b5b5092915050565b5f82825260208201905092915050565b5f613e0a82613a97565b613e148185613df0565b9350613e24818560208601613ab1565b613e2d816131c3565b840191505092915050565b5f604082019050613e4b5f8301856135e9565b8181036020830152613e5d8184613e00565b90509392505050565b7f4e487b71000000000000000000000000000000000000000000000000000000005f52602260045260245ffd5b5f6002820490506001821680613eaa57607f821691505b602082108103613ebd57613ebc613e66565b5b50919050565b5f819050815f5260205f209050919050565b5f6020601f8301049050919050565b5f82821b905092915050565b5f60088302613f1f7fffffffffffffffffffffffffffffffffffffffffffffffffffffffffffffffff82613ee4565b613f298683613ee4565b95508019841693508086168417925050509392505050565b5f819050919050565b5f613f64613f5f613f5a84613188565b613f41565b613188565b9050919050565b5f819050919050565b613f7d83613f4a565b613f91613f8982613f6b565b848454613ef0565b825550505050565b5f5f905090565b613fa8613f99565b613fb3818484613f74565b505050565b5b81811015613fd657613fcb5f82613fa0565b600181019050613fb9565b5050565b601f82111561401b57613fec81613ec3565b613ff584613ed5565b81016020851015614004578190505b61401861401085613ed5565b830182613fb8565b50505b505050565b5f82821c905092915050565b5f61403b5f1984600802614020565b1980831691505092915050565b5f614053838361402c565b9150826002028217905092915050565b61406c82613a97565b67ffffffffffffffff811115614085576140846131d3565b5b61408f8254613e93565b61409a828285613fda565b5f60209050601f8311600181146140cb575f84156140b9578287015190505b6140c38582614048565b86555061412a565b601f1984166140d986613ec3565b5f5b82811015614100578489015182556001820191506020850194506020810190506140db565b8683101561411d5784890151614119601f89168261402c565b8355505b6001600288020188555050505b505050505050565b5f6060820190508181035f83015261414a8186613e00565b905061415960208301856136c7565b61416660408301846135e9565b949350505050565b5f6040820190506141815f8301856136c7565b61418e60208301846136c7565b9392505050565b7f4e487b71000000000000000000000000000000000000000000000000000000005f52603260045260245ffd5b5f602082840312156141d7576141d6613180565b5b5f6141e48482850161371a565b91505092915050565b5f6141f782613188565b91507fffffffffffffffffffffffffffffffffffffffffffffffffffffffffffffffff820361422957614228613d82565b5b600182019050919050565b5f6040820190508181035f83015261424c8185613e00565b905081810360208301526142608184613e00565b90509392505050565b7f4d616e75666163747572696e6720466163696c697479000000000000000000005f82015250565b5f61429d601683613df0565b91506142a882614269565b602082019050919050565b5f819050919050565b5f6142d66142d16142cc846142b3565b613f41565b61331a565b9050919050565b6142e6816142bc565b82525050565b5f6060820190508181035f83015261430381614291565b905061431260208301856136c7565b61431f60408301846142dd565b939250505056fea26469706673582212204f98b7de5ec2a6443c66f4a7112a70b528d7077ad1c5f6b39ad9e51824066db264736f6c634300081e0033","linkReferences":{}},"methodIdentifiers":{"acceptOwnership()":"79ba5097","addCheckpoint(uint256,string,uint8,string,int256)":"03459922","assignRole(address,uint8)":"630a195b","batchAssignRoles(address[],uint8[])":"662d6ce5","checkTemperatureCompliance(uint256)":"8e661851","getCurrentHolder(uint256)":"7972f5c3","getOwner()":"893d20e8","getPendingOwner()":"93596c7b","getProduct(uint256)":"b9db15b4","getProductCheckpoints(uint256)":"e0910faf","getProductCount()":"4a348da9","getProductsByManufacturer(address,uint256)":"b9b2ce68","getProductsByStatus(uint8,uint256)":"987ecd6a","getTemperatureThresholds()":"3cc3c872","getUserRole(address)":"27820851","isAuthorized(address)":"fe9fbb80","isPaused()":"b187bd26","registerProduct(string,string)":"8fbd0dcf","revokeUser(address)":"ef097fc4","setPaused(bool)":"16c38b3c","setTemperatureThresholds(int256,int256)":"21835adf","transferContractOwnership(address)":"a843c51f","transferOwnership(uint256,address)":"29507f73","verifyProduct(uint256)":"524e8462"},"id":22}